{
    "_format": "hh-sol-artifact-1",
    "contractName": "Auctions",
    "sourceName": "contracts/Auctions.sol",
    "abi": [
        {
            "inputs": [
                {
                    "internalType": "uint256",
                    "name": "_biddingTime",
                    "type": "uint256"
                },
                {
                    "internalType": "address payable",
                    "name": "_receiver",
                    "type": "address"
                }
            ],
            "stateMutability": "payable",
            "type": "constructor"
        },
        {
            "anonymous": false,
            "inputs": [
                {
                    "indexed": false,
                    "internalType": "address",
                    "name": "winner",
                    "type": "address"
                },
                {
                    "indexed": false,
                    "internalType": "uint256",
                    "name": "amount",
                    "type": "uint256"
                }
            ],
            "name": "AuctionEnded",
            "type": "event"
        },
        {
            "anonymous": false,
            "inputs": [
                {
                    "indexed": false,
                    "internalType": "address",
                    "name": "bidder",
                    "type": "address"
                },
                {
                    "indexed": false,
                    "internalType": "uint256",
                    "name": "amount",
                    "type": "uint256"
                }
            ],
            "name": "IncresedHighestBid",
            "type": "event"
        },
        {
            "inputs": [],
            "name": "auctionEndTime",
            "outputs": [
                {
                    "internalType": "uint256",
                    "name": "",
                    "type": "uint256"
                }
            ],
            "stateMutability": "view",
            "type": "function"
        },
        {
            "inputs": [],
            "name": "bid",
            "outputs": [],
            "stateMutability": "payable",
            "type": "function"
        },
        {
            "inputs": [],
            "name": "callRewardWinner",
            "outputs": [],
            "stateMutability": "payable",
            "type": "function"
        },
        {
            "inputs": [],
            "name": "endAuction",
            "outputs": [],
            "stateMutability": "nonpayable",
            "type": "function"
        },
        {
            "inputs": [],
            "name": "ended",
            "outputs": [
                {
                    "internalType": "bool",
                    "name": "",
                    "type": "bool"
                }
            ],
            "stateMutability": "view",
            "type": "function"
        },
        {
            "inputs": [],
            "name": "highestBid",
            "outputs": [
                {
                    "internalType": "uint256",
                    "name": "",
                    "type": "uint256"
                }
            ],
            "stateMutability": "view",
            "type": "function"
        },
        {
            "inputs": [],
            "name": "highestBidder",
            "outputs": [
                {
                    "internalType": "address",
                    "name": "",
                    "type": "address"
                }
            ],
            "stateMutability": "view",
            "type": "function"
        },
        {
            "inputs": [
                {
                    "internalType": "address",
                    "name": "",
                    "type": "address"
                }
            ],
            "name": "pendingReturns",
            "outputs": [
                {
                    "internalType": "uint256",
                    "name": "",
                    "type": "uint256"
                }
            ],
            "stateMutability": "view",
            "type": "function"
        },
        {
            "inputs": [],
            "name": "receiver",
            "outputs": [
                {
                    "internalType": "address payable",
                    "name": "",
                    "type": "address"
                }
            ],
            "stateMutability": "view",
            "type": "function"
        },
        {
            "inputs": [],
            "name": "withdraw",
            "outputs": [
                {
                    "internalType": "bool",
                    "name": "",
                    "type": "bool"
                }
            ],
            "stateMutability": "nonpayable",
            "type": "function"
        }
    ],
    "bytecode": "0x60806040526000600560006101000a81548160ff02191690831515021790555060405162000e1738038062000e1783398181016040528101906200004491906200012f565b814262000052919062000170565b600181905550806000806101000a81548173ffffffffffffffffffffffffffffffffffffffff021916908373ffffffffffffffffffffffffffffffffffffffff16021790555060008054906101000a900473ffffffffffffffffffffffffffffffffffffffff16600560016101000a81548173ffffffffffffffffffffffffffffffffffffffff021916908373ffffffffffffffffffffffffffffffffffffffff16021790555050506200026e565b60008151905062000112816200023a565b92915050565b600081519050620001298162000254565b92915050565b600080604083850312156200014357600080fd5b6000620001538582860162000118565b9250506020620001668582860162000101565b9150509250929050565b60006200017d8262000201565b91506200018a8362000201565b9250827fffffffffffffffffffffffffffffffffffffffffffffffffffffffffffffffff03821115620001c257620001c16200020b565b5b828201905092915050565b6000620001da82620001e1565b9050919050565b600073ffffffffffffffffffffffffffffffffffffffff82169050919050565b6000819050919050565b7f4e487b7100000000000000000000000000000000000000000000000000000000600052601160045260246000fd5b6200024581620001cd565b81146200025157600080fd5b50565b6200025f8162000201565b81146200026b57600080fd5b50565b610b99806200027e6000396000f3fe6080604052600436106100915760003560e01c80637777648811610059578063777764881461015e57806391f9015714610168578063d57bde7914610193578063f7260d3e146101be578063fe67a54b146101e957610091565b806312fa6feb146100965780631998aeef146100c157806326b387bb146100cb5780633ccfd60b146101085780634b449cba14610133575b600080fd5b3480156100a257600080fd5b506100ab610200565b6040516100b89190610902565b60405180910390f35b6100c9610213565b005b3480156100d757600080fd5b506100f260048036038101906100ed91906107b2565b610440565b6040516100ff919061099d565b60405180910390f35b34801561011457600080fd5b5061011d610458565b60405161012a9190610902565b60405180910390f35b34801561013f57600080fd5b5061014861057c565b604051610155919061099d565b60405180910390f35b610166610582565b005b34801561017457600080fd5b5061017d61069b565b60405161018a91906108a3565b60405180910390f35b34801561019f57600080fd5b506101a86106c1565b6040516101b5919061099d565b60405180910390f35b3480156101ca57600080fd5b506101d36106c7565b6040516101e091906108be565b60405180910390f35b3480156101f557600080fd5b506101fe6106eb565b005b600560009054906101000a900460ff1681565b6001544211156102d0576001600560006101000a81548160ff0219169083151502179055507fdaec4582d5d9595688c8c98545fdd1c696d41c6aeaeb636737e84ed2f5c00eda600260009054906101000a900473ffffffffffffffffffffffffffffffffffffffff1660035460405161028d9291906108d9565b60405180910390a16040517f08c379a00000000000000000000000000000000000000000000000000000000081526004016102c79061095d565b60405180910390fd5b6003543411610314576040517f08c379a000000000000000000000000000000000000000000000000000000000815260040161030b9061091d565b60405180910390fd5b6000600354146103995760035460046000600260009054906101000a900473ffffffffffffffffffffffffffffffffffffffff1673ffffffffffffffffffffffffffffffffffffffff1673ffffffffffffffffffffffffffffffffffffffff168152602001908152602001600020600082825461039191906109c9565b925050819055505b3460038190555033600260006101000a81548173ffffffffffffffffffffffffffffffffffffffff021916908373ffffffffffffffffffffffffffffffffffffffff1602179055507f4cba81f583fe5c3802b0fb8939b4c308bb76bfa955bad17af4ba9e941c4ea0e9600260009054906101000a900473ffffffffffffffffffffffffffffffffffffffff166003546040516104369291906108d9565b60405180910390a1565b60046020528060005260406000206000915090505481565b600080600460003373ffffffffffffffffffffffffffffffffffffffff1673ffffffffffffffffffffffffffffffffffffffff1681526020019081526020016000205490506000811115610573576000600460003373ffffffffffffffffffffffffffffffffffffffff1673ffffffffffffffffffffffffffffffffffffffff168152602001908152602001600020819055503373ffffffffffffffffffffffffffffffffffffffff166108fc829081150290604051600060405180830381858888f193505050506105725780600460003373ffffffffffffffffffffffffffffffffffffffff1673ffffffffffffffffffffffffffffffffffffffff168152602001908152602001600020819055506000915050610579565b5b60019150505b90565b60015481565b60015442111561069957600560019054906101000a900473ffffffffffffffffffffffffffffffffffffffff1673ffffffffffffffffffffffffffffffffffffffff1663373c7143600260009054906101000a900473ffffffffffffffffffffffffffffffffffffffff166040518263ffffffff1660e01b815260040161060991906108be565b600060405180830381600087803b15801561062357600080fd5b505af1158015610637573d6000803e3d6000fd5b505050507fdaec4582d5d9595688c8c98545fdd1c696d41c6aeaeb636737e84ed2f5c00eda600260009054906101000a900473ffffffffffffffffffffffffffffffffffffffff166003546040516106909291906108d9565b60405180910390a15b565b600260009054906101000a900473ffffffffffffffffffffffffffffffffffffffff1681565b60035481565b60008054906101000a900473ffffffffffffffffffffffffffffffffffffffff1681565b600154421015610730576040517f08c379a00000000000000000000000000000000000000000000000000000000081526004016107279061097d565b60405180910390fd5b600560009054906101000a900460ff1615610780576040517f08c379a00000000000000000000000000000000000000000000000000000000081526004016107779061093d565b60405180910390fd5b6001600560006101000a81548160ff021916908315150217905550565b6000813590506107ac81610b4c565b92915050565b6000602082840312156107c457600080fd5b60006107d28482850161079d565b91505092915050565b6107e481610a31565b82525050565b6107f381610a1f565b82525050565b61080281610a43565b82525050565b6000610815601d836109b8565b915061082082610aa8565b602082019050919050565b60006108386015836109b8565b915061084382610ad1565b602082019050919050565b600061085b601c836109b8565b915061086682610afa565b602082019050919050565b600061087e601a836109b8565b915061088982610b23565b602082019050919050565b61089d81610a6f565b82525050565b60006020820190506108b860008301846107ea565b92915050565b60006020820190506108d360008301846107db565b92915050565b60006040820190506108ee60008301856107ea565b6108fb6020830184610894565b9392505050565b600060208201905061091760008301846107f9565b92915050565b6000602082019050818103600083015261093681610808565b9050919050565b600060208201905081810360008301526109568161082b565b9050919050565b600060208201905081810360008301526109768161084e565b9050919050565b6000602082019050818103600083015261099681610871565b9050919050565b60006020820190506109b26000830184610894565b92915050565b600082825260208201905092915050565b60006109d482610a6f565b91506109df83610a6f565b9250827fffffffffffffffffffffffffffffffffffffffffffffffffffffffffffffffff03821115610a1457610a13610a79565b5b828201905092915050565b6000610a2a82610a4f565b9050919050565b6000610a3c82610a4f565b9050919050565b60008115159050919050565b600073ffffffffffffffffffffffffffffffffffffffff82169050919050565b6000819050919050565b7f4e487b7100000000000000000000000000000000000000000000000000000000600052601160045260246000fd5b7f546865726520697320616c726561647920612068696768657220626964000000600082015250565b7f41756374696f6e20616c726561647920656e6465640000000000000000000000600082015250565b7f5468652061756374696f6e20697320616c726561647920656e64656400000000600082015250565b7f5468652061756374696f6e206973207374696c6c20616c697665000000000000600082015250565b610b5581610a1f565b8114610b6057600080fd5b5056fea2646970667358221220b208b15a56aa705b1f66768d1627581bb4cbcf20d8f3996dca7ed98c26f5a09a64736f6c63430008040033",
    "linkReferences": {},
    "deployedLinkReferences": {}
}