{
  "_format": "hh-sol-artifact-1",
  "contractName": "Staking",
  "sourceName": "contracts/Staking.sol",
  "abi": [
    {
      "inputs": [],
      "stateMutability": "nonpayable",
      "type": "constructor"
    },
    {
      "inputs": [
        {
          "internalType": "uint256",
          "name": "",
          "type": "uint256"
        }
      ],
      "name": "auctionHistory",
      "outputs": [
        {
          "internalType": "address payable",
          "name": "",
          "type": "address"
        }
      ],
      "stateMutability": "view",
      "type": "function"
    },
    {
      "inputs": [],
      "name": "auctionId",
      "outputs": [
        {
          "internalType": "uint256",
          "name": "",
          "type": "uint256"
        }
      ],
      "stateMutability": "view",
      "type": "function"
    },
    {
      "inputs": [],
      "name": "current",
      "outputs": [
        {
          "internalType": "uint256",
          "name": "",
          "type": "uint256"
        }
      ],
      "stateMutability": "view",
      "type": "function"
    },
    {
      "inputs": [
        {
          "internalType": "address",
          "name": "",
          "type": "address"
        }
      ],
      "name": "depositions",
      "outputs": [
        {
          "internalType": "uint256",
          "name": "",
          "type": "uint256"
        }
      ],
      "stateMutability": "view",
      "type": "function"
    },
    {
      "inputs": [],
      "name": "end",
      "outputs": [
        {
          "internalType": "uint256",
          "name": "",
          "type": "uint256"
        }
      ],
      "stateMutability": "view",
      "type": "function"
    },
    {
      "inputs": [],
      "name": "enter",
      "outputs": [],
      "stateMutability": "nonpayable",
      "type": "function"
    },
    {
      "inputs": [
        {
          "internalType": "uint256",
          "name": "_auctionId",
          "type": "uint256"
        }
      ],
      "name": "getAuctionHistory",
      "outputs": [
        {
          "internalType": "address payable",
          "name": "",
          "type": "address"
        }
      ],
      "stateMutability": "view",
      "type": "function"
    },
    {
      "inputs": [],
      "name": "getMembers",
      "outputs": [
        {
          "internalType": "address payable[]",
          "name": "",
          "type": "address[]"
        }
      ],
      "stateMutability": "view",
      "type": "function"
    },
    {
      "inputs": [
        {
          "internalType": "uint256",
          "name": "_groupId",
          "type": "uint256"
        }
      ],
      "name": "getTotal",
      "outputs": [
        {
          "internalType": "uint256",
          "name": "",
          "type": "uint256"
        }
      ],
      "stateMutability": "view",
      "type": "function"
    },
    {
      "inputs": [
        {
          "internalType": "uint256",
          "name": "",
          "type": "uint256"
        }
      ],
      "name": "members",
      "outputs": [
        {
          "internalType": "address payable",
          "name": "",
          "type": "address"
        }
      ],
      "stateMutability": "view",
      "type": "function"
    },
    {
      "inputs": [],
      "name": "owner",
      "outputs": [
        {
          "internalType": "address",
          "name": "",
          "type": "address"
        }
      ],
      "stateMutability": "view",
      "type": "function"
    },
    {
      "inputs": [
        {
          "internalType": "address payable",
          "name": "winner",
          "type": "address"
        }
      ],
      "name": "rewardWinner",
      "outputs": [],
      "stateMutability": "nonpayable",
      "type": "function"
    },
    {
      "inputs": [],
      "name": "size",
      "outputs": [
        {
          "internalType": "uint256",
          "name": "",
          "type": "uint256"
        }
      ],
      "stateMutability": "view",
      "type": "function"
    },
    {
      "inputs": [],
      "name": "stake",
      "outputs": [],
      "stateMutability": "payable",
      "type": "function"
    }
  ],
  "bytecode": "0x608060405262010000600155600060025566038d7ea4c6800060035534801561002757600080fd5b5033600460006101000a81548173ffffffffffffffffffffffffffffffffffffffff021916908373ffffffffffffffffffffffffffffffffffffffff160217905550610b00806100786000396000f3fe6080604052600436106100dd5760003560e01c8063949d225d1161007f578063d484cacf11610059578063d484cacf146102a3578063e7f4c127146102e0578063e97dcb621461031d578063efbe1c1c14610334576100dd565b8063949d225d146102225780639eab52531461024d5780639fa6a6e314610278576100dd565b8063373c7143116100bb578063373c7143146101875780633a4b66f1146101b05780635daf08ca146101ba5780638da5cb5b146101f7576100dd565b806310782f8f146100e25780631feef08e1461010d57806331cde51a1461014a575b600080fd5b3480156100ee57600080fd5b506100f761035f565b60405161010491906108fb565b60405180910390f35b34801561011957600080fd5b50610134600480360381019061012f9190610742565b610365565b60405161014191906108fb565b60405180910390f35b34801561015657600080fd5b50610171600480360381019061016c9190610742565b610371565b60405161017e919061087e565b60405180910390f35b34801561019357600080fd5b506101ae60048036038101906101a99190610719565b6103a4565b005b6101b86103f8565b005b3480156101c657600080fd5b506101e160048036038101906101dc9190610742565b6104f2565b6040516101ee919061087e565b60405180910390f35b34801561020357600080fd5b5061020c610531565b6040516102199190610863565b60405180910390f35b34801561022e57600080fd5b50610237610557565b60405161024491906108fb565b60405180910390f35b34801561025957600080fd5b5061026261055d565b60405161026f9190610899565b60405180910390f35b34801561028457600080fd5b5061028d6105eb565b60405161029a91906108fb565b60405180910390f35b3480156102af57600080fd5b506102ca60048036038101906102c591906106f0565b6105f1565b6040516102d791906108fb565b60405180910390f35b3480156102ec57600080fd5b5061030760048036038101906103029190610742565b610609565b604051610314919061087e565b60405180910390f35b34801561032957600080fd5b50610332610646565b005b34801561034057600080fd5b506103496106ab565b60405161035691906108fb565b60405180910390f35b60075481565b60006009549050919050565b60086020528060005260406000206000915054906101000a900473ffffffffffffffffffffffffffffffffffffffff1681565b8073ffffffffffffffffffffffffffffffffffffffff166108fc6009549081150290604051600060405180830381858888f193505050501580156103ec573d6000803e3d6000fd5b50600060098190555050565b60005442101561043d576040517f08c379a0000000000000000000000000000000000000000000000000000000008152600401610434906108db565b60405180910390fd5b6003543414610481576040517f08c379a0000000000000000000000000000000000000000000000000000000008152600401610478906108bb565b60405180910390fd5b34600660003373ffffffffffffffffffffffffffffffffffffffff1673ffffffffffffffffffffffffffffffffffffffff16815260200190815260200160002060008282546104d09190610960565b9250508190555034600960008282546104e99190610960565b92505081905550565b6005818154811061050257600080fd5b906000526020600020016000915054906101000a900473ffffffffffffffffffffffffffffffffffffffff1681565b600460009054906101000a900473ffffffffffffffffffffffffffffffffffffffff1681565b60015481565b606060058054806020026020016040519081016040528092919081815260200182805480156105e157602002820191906000526020600020905b8160009054906101000a900473ffffffffffffffffffffffffffffffffffffffff1673ffffffffffffffffffffffffffffffffffffffff1681526020019060010190808311610597575b5050505050905090565b60025481565b60066020528060005260406000206000915090505481565b60006008600083815260200190815260200160002060009054906101000a900473ffffffffffffffffffffffffffffffffffffffff169050919050565b6005339080600181540180825580915050600190039060005260206000200160009091909190916101000a81548173ffffffffffffffffffffffffffffffffffffffff021916908373ffffffffffffffffffffffffffffffffffffffff160217905550565b60005481565b6000813590506106c081610a85565b92915050565b6000813590506106d581610a9c565b92915050565b6000813590506106ea81610ab3565b92915050565b60006020828403121561070257600080fd5b6000610710848285016106b1565b91505092915050565b60006020828403121561072b57600080fd5b6000610739848285016106c6565b91505092915050565b60006020828403121561075457600080fd5b6000610762848285016106db565b91505092915050565b60006107778383610783565b60208301905092915050565b61078c816109c8565b82525050565b61079b816109c8565b82525050565b6107aa816109b6565b82525050565b60006107bb82610926565b6107c5818561093e565b93506107d083610916565b8060005b838110156108015781516107e8888261076b565b97506107f383610931565b9250506001810190506107d4565b5085935050505092915050565b600061081b60168361094f565b915061082682610a33565b602082019050919050565b600061083e600c8361094f565b915061084982610a5c565b602082019050919050565b61085d816109fa565b82525050565b600060208201905061087860008301846107a1565b92915050565b60006020820190506108936000830184610792565b92915050565b600060208201905081810360008301526108b381846107b0565b905092915050565b600060208201905081810360008301526108d48161080e565b9050919050565b600060208201905081810360008301526108f481610831565b9050919050565b60006020820190506109106000830184610854565b92915050565b6000819050602082019050919050565b600081519050919050565b6000602082019050919050565b600082825260208201905092915050565b600082825260208201905092915050565b600061096b826109fa565b9150610976836109fa565b9250827fffffffffffffffffffffffffffffffffffffffffffffffffffffffffffffffff038211156109ab576109aa610a04565b5b828201905092915050565b60006109c1826109da565b9050919050565b60006109d3826109da565b9050919050565b600073ffffffffffffffffffffffffffffffffffffffff82169050919050565b6000819050919050565b7f4e487b7100000000000000000000000000000000000000000000000000000000600052601160045260246000fd5b7f796f752073686f756c6420706179203120657468657200000000000000000000600082015250565b7f796f7520617265206c6174650000000000000000000000000000000000000000600082015250565b610a8e816109b6565b8114610a9957600080fd5b50565b610aa5816109c8565b8114610ab057600080fd5b50565b610abc816109fa565b8114610ac757600080fd5b5056fea2646970667358221220e291694625912c7cc815343eb61b87a99eaa3e95007107b258c16f36e2f391d964736f6c63430008040033",
  "linkReferences": {},
  "deployedLinkReferences": {}
}