{
  "_format": "hh-sol-artifact-1",
  "contractName": "Staking",
  "sourceName": "contracts/Staking.sol",
  "abi": [
    {
      "inputs": [],
      "stateMutability": "nonpayable",
      "type": "constructor"
    },
    {
      "inputs": [
        {
          "internalType": "uint256",
          "name": "",
          "type": "uint256"
        }
      ],
      "name": "auctionHistory",
      "outputs": [
        {
          "internalType": "address payable",
          "name": "",
          "type": "address"
        }
      ],
      "stateMutability": "view",
      "type": "function"
    },
    {
      "inputs": [],
      "name": "auctionId",
      "outputs": [
        {
          "internalType": "uint256",
          "name": "",
          "type": "uint256"
        }
      ],
      "stateMutability": "view",
      "type": "function"
    },
    {
      "inputs": [],
      "name": "current",
      "outputs": [
        {
          "internalType": "uint256",
          "name": "",
          "type": "uint256"
        }
      ],
      "stateMutability": "view",
      "type": "function"
    },
    {
      "inputs": [
        {
          "internalType": "address",
          "name": "",
          "type": "address"
        }
      ],
      "name": "depositions",
      "outputs": [
        {
          "internalType": "uint256",
          "name": "",
          "type": "uint256"
        }
      ],
      "stateMutability": "view",
      "type": "function"
    },
    {
      "inputs": [],
      "name": "end",
      "outputs": [
        {
          "internalType": "uint256",
          "name": "",
          "type": "uint256"
        }
      ],
      "stateMutability": "view",
      "type": "function"
    },
    {
      "inputs": [],
      "name": "enter",
      "outputs": [],
      "stateMutability": "nonpayable",
      "type": "function"
    },
    {
      "inputs": [
        {
          "internalType": "uint256",
          "name": "_auctionId",
          "type": "uint256"
        }
      ],
      "name": "getAuctionHistory",
      "outputs": [
        {
          "internalType": "address payable",
          "name": "",
          "type": "address"
        }
      ],
      "stateMutability": "view",
      "type": "function"
    },
    {
      "inputs": [],
      "name": "getMembers",
      "outputs": [
        {
          "internalType": "address payable[]",
          "name": "",
          "type": "address[]"
        }
      ],
      "stateMutability": "view",
      "type": "function"
    },
    {
      "inputs": [
        {
          "internalType": "uint256",
          "name": "_groupId",
          "type": "uint256"
        }
      ],
      "name": "getTotal",
      "outputs": [
        {
          "internalType": "uint256",
          "name": "",
          "type": "uint256"
        }
      ],
      "stateMutability": "view",
      "type": "function"
    },
    {
      "inputs": [
        {
          "internalType": "address",
          "name": "",
          "type": "address"
        }
      ],
      "name": "groupIds",
      "outputs": [
        {
          "internalType": "uint256",
          "name": "",
          "type": "uint256"
        }
      ],
      "stateMutability": "view",
      "type": "function"
    },
    {
      "inputs": [
        {
          "internalType": "uint256",
          "name": "",
          "type": "uint256"
        }
      ],
      "name": "members",
      "outputs": [
        {
          "internalType": "address payable",
          "name": "",
          "type": "address"
        }
      ],
      "stateMutability": "view",
      "type": "function"
    },
    {
      "inputs": [],
      "name": "owner",
      "outputs": [
        {
          "internalType": "address",
          "name": "",
          "type": "address"
        }
      ],
      "stateMutability": "view",
      "type": "function"
    },
    {
      "inputs": [
        {
          "internalType": "address payable",
          "name": "winner",
          "type": "address"
        }
      ],
      "name": "rewardWinner",
      "outputs": [],
      "stateMutability": "nonpayable",
      "type": "function"
    },
    {
      "inputs": [],
      "name": "size",
      "outputs": [
        {
          "internalType": "uint256",
          "name": "",
          "type": "uint256"
        }
      ],
      "stateMutability": "view",
      "type": "function"
    },
    {
      "inputs": [],
      "name": "stake",
      "outputs": [],
      "stateMutability": "payable",
      "type": "function"
    }
  ],
  "bytecode": "0x608060405262010000600155600060025566038d7ea4c6800060035534801561002757600080fd5b5033600560006101000a81548173ffffffffffffffffffffffffffffffffffffffff021916908373ffffffffffffffffffffffffffffffffffffffff160217905550610b60806100786000396000f3fe6080604052600436106100e85760003560e01c80638da5cb5b1161008a578063d484cacf11610059578063d484cacf146102eb578063e7f4c12714610328578063e97dcb6214610365578063efbe1c1c1461037c576100e8565b80638da5cb5b1461023f578063949d225d1461026a5780639eab5253146102955780639fa6a6e3146102c0576100e8565b806331cde51a116100c657806331cde51a14610192578063373c7143146101cf5780633a4b66f1146101f85780635daf08ca14610202576100e8565b806310782f8f146100ed5780631feef08e146101185780632966382e14610155575b600080fd5b3480156100f957600080fd5b506101026103a7565b60405161010f919061095b565b60405180910390f35b34801561012457600080fd5b5061013f600480360381019061013a91906107a2565b6103ad565b60405161014c919061095b565b60405180910390f35b34801561016157600080fd5b5061017c60048036038101906101779190610750565b6103b9565b604051610189919061095b565b60405180910390f35b34801561019e57600080fd5b506101b960048036038101906101b491906107a2565b6103d1565b6040516101c691906108de565b60405180910390f35b3480156101db57600080fd5b506101f660048036038101906101f19190610779565b610404565b005b610200610458565b005b34801561020e57600080fd5b50610229600480360381019061022491906107a2565b610552565b60405161023691906108de565b60405180910390f35b34801561024b57600080fd5b50610254610591565b60405161026191906108c3565b60405180910390f35b34801561027657600080fd5b5061027f6105b7565b60405161028c919061095b565b60405180910390f35b3480156102a157600080fd5b506102aa6105bd565b6040516102b791906108f9565b60405180910390f35b3480156102cc57600080fd5b506102d561064b565b6040516102e2919061095b565b60405180910390f35b3480156102f757600080fd5b50610312600480360381019061030d9190610750565b610651565b60405161031f919061095b565b60405180910390f35b34801561033457600080fd5b5061034f600480360381019061034a91906107a2565b610669565b60405161035c91906108de565b60405180910390f35b34801561037157600080fd5b5061037a6106a6565b005b34801561038857600080fd5b5061039161070b565b60405161039e919061095b565b60405180910390f35b60085481565b6000600a549050919050565b60046020528060005260406000206000915090505481565b60096020528060005260406000206000915054906101000a900473ffffffffffffffffffffffffffffffffffffffff1681565b8073ffffffffffffffffffffffffffffffffffffffff166108fc600a549081150290604051600060405180830381858888f1935050505015801561044c573d6000803e3d6000fd5b506000600a8190555050565b60005442101561049d576040517f08c379a00000000000000000000000000000000000000000000000000000000081526004016104949061093b565b60405180910390fd5b60035434146104e1576040517f08c379a00000000000000000000000000000000000000000000000000000000081526004016104d89061091b565b60405180910390fd5b34600760003373ffffffffffffffffffffffffffffffffffffffff1673ffffffffffffffffffffffffffffffffffffffff168152602001908152602001600020600082825461053091906109c0565b9250508190555034600a600082825461054991906109c0565b92505081905550565b6006818154811061056257600080fd5b906000526020600020016000915054906101000a900473ffffffffffffffffffffffffffffffffffffffff1681565b600560009054906101000a900473ffffffffffffffffffffffffffffffffffffffff1681565b60015481565b6060600680548060200260200160405190810160405280929190818152602001828054801561064157602002820191906000526020600020905b8160009054906101000a900473ffffffffffffffffffffffffffffffffffffffff1673ffffffffffffffffffffffffffffffffffffffff16815260200190600101908083116105f7575b5050505050905090565b60025481565b60076020528060005260406000206000915090505481565b60006009600083815260200190815260200160002060009054906101000a900473ffffffffffffffffffffffffffffffffffffffff169050919050565b6006339080600181540180825580915050600190039060005260206000200160009091909190916101000a81548173ffffffffffffffffffffffffffffffffffffffff021916908373ffffffffffffffffffffffffffffffffffffffff160217905550565b60005481565b60008135905061072081610ae5565b92915050565b60008135905061073581610afc565b92915050565b60008135905061074a81610b13565b92915050565b60006020828403121561076257600080fd5b600061077084828501610711565b91505092915050565b60006020828403121561078b57600080fd5b600061079984828501610726565b91505092915050565b6000602082840312156107b457600080fd5b60006107c28482850161073b565b91505092915050565b60006107d783836107e3565b60208301905092915050565b6107ec81610a28565b82525050565b6107fb81610a28565b82525050565b61080a81610a16565b82525050565b600061081b82610986565b610825818561099e565b935061083083610976565b8060005b8381101561086157815161084888826107cb565b975061085383610991565b925050600181019050610834565b5085935050505092915050565b600061087b6016836109af565b915061088682610a93565b602082019050919050565b600061089e600c836109af565b91506108a982610abc565b602082019050919050565b6108bd81610a5a565b82525050565b60006020820190506108d86000830184610801565b92915050565b60006020820190506108f360008301846107f2565b92915050565b600060208201905081810360008301526109138184610810565b905092915050565b600060208201905081810360008301526109348161086e565b9050919050565b6000602082019050818103600083015261095481610891565b9050919050565b600060208201905061097060008301846108b4565b92915050565b6000819050602082019050919050565b600081519050919050565b6000602082019050919050565b600082825260208201905092915050565b600082825260208201905092915050565b60006109cb82610a5a565b91506109d683610a5a565b9250827fffffffffffffffffffffffffffffffffffffffffffffffffffffffffffffffff03821115610a0b57610a0a610a64565b5b828201905092915050565b6000610a2182610a3a565b9050919050565b6000610a3382610a3a565b9050919050565b600073ffffffffffffffffffffffffffffffffffffffff82169050919050565b6000819050919050565b7f4e487b7100000000000000000000000000000000000000000000000000000000600052601160045260246000fd5b7f796f752073686f756c6420706179203120657468657200000000000000000000600082015250565b7f796f7520617265206c6174650000000000000000000000000000000000000000600082015250565b610aee81610a16565b8114610af957600080fd5b50565b610b0581610a28565b8114610b1057600080fd5b50565b610b1c81610a5a565b8114610b2757600080fd5b5056fea2646970667358221220f0d570d8aba611b7d4bfb785e5ff8881ea9e3d87b98ddf921e5357c0efd6ff4964736f6c63430008040033",
  "linkReferences": {},
  "deployedLinkReferences": {}
}